:1000000009C017C029C014C013C012C011C010C04D
:100010000FC07CC011241FBECFE9CDBF20E0A0E6F9
:10002000B0E001C01D92A236B207E1F770D0C0C0A7
:10003000E7CF0091610000FF0DC0BA9810916000F9
:10004000110F001F00936100109360000AB7006257
:100050000ABF1895BA9AF2CF1F920F920FB60F925D
:1000600011242F933F934F935F936F937F938F93BD
:100070009F93AF93BF93EF93FF93B09B34C01BBE8E
:10008000379A789485B7877E886085BF889585B7CD
:10009000877E85BFF89464B175B190E080E028E177
:1000A00031E040E050E049D02FEF33E040E050E055
:1000B0005DD022593F4F3093610020936000379804
:1000C00080E68BBF809160009091610090FF1CC022
:1000D000BA988091600090916100880F991F909369
:1000E000610080936000FF91EF91BF91AF919F916C
:1000F0008F917F916F915F914F913F912F910F90D1
:100100000FBE0F901F901895BA9AE3CF189582E012
:1001100085BD90E898B993E098BB97B99FE096B9F0
:1001200098E094BB85BF81E085BB80E68BBF85B737
:10013000806285BF78948895FECFEE27FF27AA2797
:10014000BB2708C0A20FB31FE41FF51F220F331FE8
:10015000441F551F969587957795679598F370403E
:10016000A9F7009799F7BD01CF010895A1E21A2ED2
:10017000AA1BBB1BFD010DC0AA1FBB1FEE1FFF1F4B
:10018000A217B307E407F50720F0A21BB30BE40B9B
:10019000F50B661F771F881F991F1A9469F76095E2
:1001A0007095809590959B01AC01BD01CF0108959C
:0401B000F894FFCFF1
:00000001FF
